:100000000C9462000C94DA060C94B3060C948A00EB
:100010000C948A000C948A000C948A000C948A0038
:100020000C948A000C948A000C948A000C948A0028
:100030000C948A000C948A000C948A000C948A0018
:100040000C9469060C948A000C9427070C94010701
:100050000C948A000C948A000C948A000C948A00F8
:100060000C943B050C948A0000000000240027003B
:100070002A0000000000250028002B0000000000DE
:1000800023002600290004040404040404040202DA
:100090000202020203030303030301020408102007
:1000A0004080010204081020010204081020000012
:1000B0000008000201000003040700000000000027
:1000C0000000590711241FBECFEFD8E0DEBFCDBF1F
:1000D00011E0A0E0B1E0E4E8F4E102C005900D9287
:1000E000A433B107D9F722E0A4E3B1E001C01D9227
:1000F000AD3BB207E1F710E0C2E6D0E004C02197C3
:10010000FE010E94350AC136D107C9F70E94B60721
:100110000C94400A0C940000089508954091A601A3
:10012000262F30E0240F311D21323105DCF42091DF
:10013000CA012430C9F4FC0180E090E0861758F42D
:100140003091A6012191DC01AA57BE4FA30FB11D2A
:100150002C930196F3CF8091A601680F6093A601BE
:1001600080E0089581E0089582E008950895E09187
:10017000F7018091F601E81730F4F0E0E05AFE4F05
:10018000808190E008958FEF9FEF08959091F7019F
:100190008091F601981750F4E92FF0E0E05AFE4FF5
:1001A000208130E09F5F9093F70102C02FEF3FEF77
:1001B000C90108958091F60190E02091F701821B1A
:1001C00091090895CF92DF92EF92FF920F931F93C0
:1001D000CF93DF937C01CB018A0120915F01222321
:1001E00089F0EB016B01C40ED51ECC15DD0569F05D
:1001F0006991D701ED91FC910190F081E02DC7014B
:100200000995F3CF642F0E948E00C801DF91CF9132
:100210001F910F91FF90EF90DF90CF900895CF93B3
:10022000DF931F92CDB7DEB7698320915F01222350
:10023000D1F02091F401203240F021E030E0FC01C7
:100240003383228380E090E015C08091F501E82F90
:10025000F0E0E15CFE4F998190838F5F8093F50120
:100260008093F40105C061E0CE0101960E948E00EA
:1002700081E090E00F90DF91CF910895833081F07D
:1002800028F4813099F08230A1F008958730A9F0E8
:100290008830B9F08430D1F4809180008F7D03C024
:1002A000809180008F7780938000089584B58F7748
:1002B00002C084B58F7D84BD08958091B0008F7792
:1002C00003C08091B0008F7D8093B0000895CF93DC
:1002D000DF93282F30E0F901E255FF4F8491F901B7
:1002E000E656FF4FD491F901EA57FF4FC491CC2352
:1002F00091F081110E943E01EC2FF0E0EE0FFF1F04
:10030000E458FF4FA591B491EC91ED2381E090E08A
:1003100021F480E002C080E090E0DF91CF91089569
:100320001F93CF93DF93282F30E0F901E255FF4F61
:100330008491F901E656FF4FD491F901EA57FF4F36
:10034000C491CC23C1F0162F81110E943E01EC2FE5
:10035000F0E0EE0FFF1FEE58FF4FA591B4919FB74D
:10036000F894111104C08C91D095D82302C0EC915F
:10037000DE2BDC939FBFDF91CF911F9108951092E8
:10038000CA0181E08093CC011092CB0161E082E14F
:100390000E94900161E083E10E949001E9EBF0E0AE
:1003A00080818E7F808380818D7F808388E48093AD
:1003B000B80085E48093BC0008951092F701109274
:1003C000F6011092F5011092F4010E94BF018CE831
:1003D00090E09093F3018093F2018DE890E0909388
:1003E000F1018093F0010895CF93DF9391E0909312
:1003F00085018823B9F0C091B800D091BA008091EE
:10040000BC008A7B8093BC0060E082E10E94900186
:1004100060E083E10E9490010E94BF01D093BA0086
:10042000C093B800DF91CF9108953FB7F8948091C1
:100430003B0190913C01A0913D01B0913E0126B558
:10044000A89B05C02F3F19F00196A11DB11D3FBF0C
:10045000BA2FA92F982F8827820F911DA11DB11D9A
:10046000BC01CD0142E0660F771F881F991F4A9596
:10047000D1F708958F929F92AF92BF92CF92DF9261
:10048000EF92FF926B017C010E9415024B015C010F
:10049000C114D104E104F104F1F00E941502DC0161
:1004A000CB0188199909AA09BB09883E9340A10587
:1004B000B10570F321E0C21AD108E108F10888EE15
:1004C000880E83E0981EA11CB11CC114D104E10464
:1004D000F10419F7DDCFFF90EF90DF90CF90BF9040
:1004E000AF909F908F90089581E08093350108959B
:1004F0000895CF92DF92EF92FF920F931F93CF93C5
:10050000DF936C017A018B01C0E0D0E0CE15DF05EE
:1005100081F0D8016D918D01D601ED91FC91019092
:10052000F081E02DC6010995892B11F02196EECFBF
:100530007E01C701DF91CF911F910F91FF90EF9046
:10054000DF90CF900895089580E090E00895FC0139
:10055000538D448D252F30E0842F90E0821B930B28
:10056000541710F0CF96089501970895FC01918DCE
:10057000828D981761F0828DDF01A80FB11D5D9605
:100580008C91928D9F5F9F73928F90E008958FEF73
:100590009FEF0895FC01918D828D981731F0828D27
:1005A000E80FF11D858D90E008958FEF9FEF08957E
:1005B000FC01918D228D892F90E0805C9F4F821BE2
:1005C00091098F739927089584E092E00E94D802E0
:1005D00021E0892B09F420E0822F0895FC01848D0D
:1005E000DF01A80FB11DA35ABF4F2C91848D90E05D
:1005F00001968F739927848FA689B7892C93A08938
:10060000B1898C91837080648C93938D848D9813C1
:1006100006C00288F389E02D80818F7D8083089554
:10062000EF92FF920F931F93CF93DF93EC0181E042
:10063000888F9B8D8C8D981305C0E889F9898081FE
:1006400085FD26C0F62E0B8D10E00F5F1F4F0F7338
:100650001127E02E8C8DE8120CC00FB607FCFACFE4
:10066000E889F989808185FFF5CFCE010E94EE02ED
:10067000F1CF8B8DFE01E80FF11DE35AFF4FF082A1
:100680009FB7F8940B8FEA89FB89808180620AC04A
:100690009FB7F894EE89FF896083E889F9898081A2
:1006A0008370806480839FBF81E090E0DF91CF9171
:1006B0001F910F91FF90EF900895CF93DF93EC017E
:1006C000888D8823C9F0EA89FB89808185FD05C072
:1006D000A889B9898C9186FD0FC00FB607FCF5CFAC
:1006E000808185FFF2CFA889B9898C9185FFEDCFF4
:1006F000CE010E94EE02E7CFDF91CF91089580E016
:1007000090E0892B29F00E94E40281110C940000F2
:1007100008954F925F926F927F928F929F92AF92C5
:10072000BF92CF92DF92EF92FF920F931F93CF93DE
:10073000DF938C01FC016283D08181E080935F01B3
:10074000D09334011092F5011092F40188EF91E0FA
:100750000E940F01F090F401F0E2FF1508F4BFC011
:100760000E9415024B015C01C091CA01CC2311F11A
:100770008091810190918201A0918301B0918401C7
:10078000892B8A2B8B2B81F30E94150240908101CB
:10079000509082016090830170908401DC01CB0154
:1007A00088199909AA09BB09481659066A067B06E1
:1007B000D8F681C082E08093CA0181E08093CC01A9
:1007C0008FEF8093C9011092EE01F092ED01AFE33B
:1007D000B1E0EDECF1E080E0F81621F09D9191930D
:1007E0008F5FFACF1092EF018091EF01DD0FD82BD0
:1007F000D093EF018091CB01813089F51092CB012C
:100800000E9415026B017C018091EF018093BB0077
:100810008091810190918201A0918301B091840126
:10082000892B8A2B8B2BA9F00E94150280908101C5
:1008300090908201A0908301B0908401DC01CB01F3
:100840008C199D09AE09BF0988169906AA06BB0630
:1008500090F18091BC0083FDD7CF85EC01C085EE7F
:100860008093BC000E9415026B017C018091CA013B
:10087000823039F58091810190918201A0918301AC
:10088000B0918401892B8A2B8B2B81F30E94150256
:100890008090810190908201A0908301B0908401AA
:1008A000DC01CB018C199D09AE09BF098816990698
:1008B000AA06BB06D8F6809180010E94F401C5E02B
:1008C00013C08091C9018F3F79F08091C9018032B6
:1008D00041F08091C901803331F0C4E005C0C1E02E
:1008E00003C0C2E001C0C3E01092F5011092F40110
:1008F00010925F018C2F90E0F80195838483DF9143
:10090000CF911F910F91FF90EF90DF90CF90BF900C
:10091000AF909F908F907F906F905F904F900895D1
:100920004091AD0221E030E0611109C001C0220F09
:100930008A95EAF7209524232093AD020AC0B901D5
:1009400002C0660F771F8A95E2F7CB01842B809354
:10095000AD026091AD028BEA92E00C94890385EDC3
:100960008093BC008091810190918201A0918301CC
:10097000B09184010796A11DB11D23E0B695A795FE
:10098000979587952A95D1F72091BC0024FF1CC02C
:1009900040918101509182016091830170918401A5
:1009A000452B462B472B81F30097A105B10541F05C
:1009B00025E32A95F1F700000197A109B109E4CFD9
:1009C000809180010C94F4011092CA0108950E9454
:1009D0003B0ACF92DF92EF92FF920F931F93CF9338
:1009E000DF9387E00E9467016C0186E00E94670147
:1009F0007C0185E00E946701EC0184E00E946701B0
:100A00000091A5021091A602CD28F9F0EF28F9F087
:100A1000CD2BF9F0892BF9F08091A7029091A802D3
:100A20000E941F0A90E09093A4028093A302C80141
:100A30000E941F0AC82FE82FF0E0EC5FFE4F608194
:100A400081EB92E00E9489030BC0C0E005C0C1E0C9
:100A500003C0C2E001C0C3E06C2FC8010E94270A96
:100A60008C2F90E0DF91CF911F910F91FF90EF902D
:100A7000DF90CF9008951F920F920FB60F9211241E
:100A80002F933F934F935F936F937F938F939F9396
:100A9000AF93BF93EF93FF938091B900887F803627
:100AA00009F49CC068F5883209F45BC090F4803189
:100AB00009F454C038F4882309F4F6C0883009F4E6
:100AC0004DC0F6C0883109F44CC0803209F45DC0D5
:100AD000EFC0803409F468C048F4803309F455C08D
:100AE000883309F0E5C08093C901D8C0803509F486
:100AF0004FC0883509F45DC0883409F0D9C0D6C02C
:100B0000883909F4C7C0A8F4883709F467C038F4F5
:100B1000883609F463C0803709F460C0C9C08838DA
:100B200009F4B8C0803909F45FC0803809F0C0C04A
:100B30005BC0803B09F486C038F4803A09F466C093
:100B4000883A09F47FC0B4C0803C09F4A7C0883C4F
:100B500009F4A4C0883B09F48AC0AAC08091EF01BF
:100B600010C09091EE018091ED01981770F5E09121
:100B7000EE0181E08E0F8093EE01F0E0E353FE4F33
:100B800080818093BB0085EC86C08093C9018EC0B4
:100B9000E091EE0181E08E0F8093EE018091BB0029
:100BA000F0E0E353FE4F80839091EE018091ED01E0
:100BB0006EC0E091EE0181E08E0F8093EE01809196
:100BC000BB00F0E0E353FE4F80838091CC018111A4
:100BD0006DC081E08093CB0184EA61C083E08093A3
:100BE000CA011092C801CFCF8091C801803208F0AD
:100BF00051C0E091C80181E08E0F8093C8018091BF
:100C0000BB00F0E0E855FE4F8083BDCF85EC8093BC
:100C1000BC001092CA018091C801803230F4E0918A
:100C2000C801F0E0E855FE4F10826091C80170E005
:100C3000E091F001F091F10188EA91E009951092BC
:100C4000C80136C084E08093CA011092A7011092B7
:100C5000A601E091F201F091F30109958091A601BE
:100C6000811105C081E08093A60110928601E09178
:100C7000A70181E08E0F8093A701F0E0EA57FE4FB5
:100C800080818093BB009091A7018091A601981765
:100C900008F479CF85E88093BC000AC085EC809386
:100CA000BC001092CA0104C01092C9010E94AF0496
:100CB000FF91EF91BF91AF919F918F917F916F9134
:100CC0005F914F913F912F910F900FBE0F901F900A
:100CD00018951F920F920FB60F9211242F933F93E6
:100CE0008F939F93AF93BF93809137019091380179
:100CF000A0913901B0913A013091360123E0230FE0
:100D00002D3720F40196A11DB11D05C026E8230F43
:100D10000296A11DB11D2093360180933701909357
:100D20003801A0933901B0933A0180913B01909131
:100D30003C01A0913D01B0913E010196A11DB11D64
:100D400080933B0190933C01A0933D01B0933E0101
:100D5000BF91AF919F918F913F912F910F900FBEB7
:100D60000F901F9018951F920F920FB60F9211249B
:100D70002F933F934F935F936F937F938F939F93A3
:100D8000AF93BF93EF93FF93E0910201F0910301C2
:100D90000995FF91EF91BF91AF919F918F917F91B5
:100DA0006F915F914F913F912F910F900FBE0F90D8
:100DB0001F9018951F920F920FB60F9211242F9328
:100DC0003F934F935F936F937F938F939F93AF93D3
:100DD000BF93EF93FF93E0910001F091010109951A
:100DE000FF91EF91BF91AF919F918F917F916F9103
:100DF0005F914F913F912F910F900FBE0F901F90D9
:100E000018951F920F920FB60F9211242F933F93B4
:100E10004F935F936F937F938F939F93AF93BF9302
:100E2000EF93FF9384E092E00E94EE02FF91EF9136
:100E3000BF91AF919F918F917F916F915F914F91F2
:100E40003F912F910F900FBE0F901F9018951F92FA
:100E50000F920FB60F9211242F938F939F93EF93BE
:100E6000FF93E0911402F09115028081E0911A0243
:100E7000F0911B0282FD12C0908180911D028F5F54
:100E80008F7320911E02821751F0E0911D02F0E055
:100E9000EC5FFD4F958F80931D0201C08081FF9113
:100EA000EF919F918F912F910F900FBE0F901F90F8
:100EB0001895E8EFF1E01382128288EE93E0A0E04B
:100EC000B0E084839583A683B78323E131E0318347
:100ED0002083E4E0F2E01382128284839583A68368
:100EE000B78385E291E09183808385EC90E09587DC
:100EF000848784EC90E09787868780EC90E0918BE4
:100F0000808B81EC90E0938B828B82EC90E0958BD0
:100F1000848B86EC90E0978B868B118E128E138ECD
:100F2000148EE7EBF2E080E2808311828FEF828300
:100F3000838315821482E1EBF2E091E290831182C7
:100F40008283838315821482EBEAF2E092E290833B
:100F500011828283838315821482E1EAF2E0158292
:100F6000148281E090E0978386830895789484B515
:100F7000826084BD84B5816084BD85B5826085BD95
:100F800085B5816085BD80916E00816080936E0023
:100F90001092810080918100826080938100809115
:100FA00081008160809381008091800081608093C6
:100FB00080008091B10084608093B1008091B00086
:100FC00081608093B00080917A00846080937A0081
:100FD00080917A00826080937A0080917A008160AB
:100FE00080937A0080917A00806880937A001092D2
:100FF000C100E0911402F091150282E08083E0913B
:101000001002F09111021082E0911202F09113028D
:1010100087E6808310921C02E0911802F091190279
:1010200086E08083E0911602F09117028081806152
:101030008083E0911602F09117028081886080839E
:10104000E0911602F0911702808180688083E09120
:101050001602F091170280818F7D80830E94DD014E
:101060006FEF87EB92E00E9489030E94DD016FEF32
:1010700081EB92E00E9489030E94DD0160E08BEA2F
:1010800092E00E9489038FEF90E09093A4028093F6
:10109000A302EDE9F0E02491E9E8F0E084918823EF
:1010A000C1F090E0880F991FFC01E859FF4FC591EE
:1010B000D491FC01EE58FF4FA591B4919FB7F894DD
:1010C0008881322F309583238883EC91E22BEC9337
:1010D0009FBF84E792E09093030180930201809187
:1010E0006900837F886080936900E99A0E94E9041F
:1010F0009093A2028093A102FC01EC5FFE4F6081FD
:1011000081EB92E00E94890344244394512C92E0A5
:10111000692E712C03E010E022E8E22EF12CD1E0E0
:1011200035EC332ECC24CA94D12C80913501882300
:1011300009F40FC1109235012090B7020E941502E8
:101140004B015C01C091CA01CC2339F1809181012E
:1011500090918201A0918301B0918401892B8A2B07
:101160008B2B81F30E941502209181013091820125
:101170004091830150918401DC01CB0188199909C8
:10118000AA09BB09281739074A075B07D8F68091D7
:1011900080010E94F401C0E08DC0D093CA01D093B9
:1011A000CC018FEF8093C9011092EE011092ED01F6
:1011B000D093EF018091EF01220C282A2092EF01B9
:1011C0008091CB01813091F51092CB010E941502E4
:1011D0004B015C018091EF018093BB008091810104
:1011E00090918201A0918301B0918401892B8A2B77
:1011F0008B2BA9F00E941502209181013091820170
:101200004091830150918401DC01CB018819990937
:10121000AA09BB09281739074A075B0798F180918B
:10122000BC0083FDD7CF3092BC0003C085EE809315
:10123000BC000E9415024B015C018091CA01813003
:1012400031F58091810190918201A0918301B0914B
:101250008401892B8A2B8B2B81F30E94150220910C
:101260008101309182014091830150918401DC0120
:10127000CB0188199909AA09BB09281739074A0718
:101280005B07D8F6809180010E94F40113C0809121
:10129000EE01811103C08091EE0101C081E0EDEC0F
:1012A000F1E0A0E6B1E0C0E0C81721F091919D9374
:1012B000CF5FFACF1092F701C093F601C13039F039
:1012C000F092BC02E092BB028091B80206C088EFA7
:1012D00091E00E94C6008093B80290E08F3F910594
:1012E000C1F18E3F910571F460E081E00E949004AD
:1012F00060E080E00E94900466E881EB92E00E944A
:101300008903FFCF8D3F910529F41093A402009328
:10131000A30217C08B3F910529F47092A40260923A
:10132000A3020FC0873F910529F45092A402409276
:10133000A30207C08F3E910521F41092A4021092DF
:10134000A3026091A3028091A7029091A8020E943B
:10135000270AA090A302B090A4028FEFA816B104B0
:10136000E1F1F501EC5FFE4F608181EB92E00E94BC
:10137000890361E083E00E94900461E084E00E94C0
:10138000900461E082E00E9490048091A10290911B
:10139000A2028A159B0574F4D093A90260ED77E050
:1013A00080E090E00E943A0260E081E00E949004B8
:1013B00061E010C0A816B90684F4D093AA0260EDCB
:1013C00077E080E090E00E943A0261E081E00E94D4
:1013D000900460E080E00E9490048091A1029091CE
:1013E000A202A816B90611F560E081E00E949004FF
:1013F00060E080E00E94900460E083E00E9490043E
:1014000060E084E00E94900460E082E00E9490042A
:101410001092A9021092AA02D092A402C092A30232
:1014200060E777E180E090E00E943A020E94E904E0
:101430009093A2028093A1020E947F0376CEF99935
:10144000FECF92BD81BDF89A992780B50895262FC9
:10145000F999FECF1FBA92BD81BD20BD0FB6F89499
:10146000FA9AF99A0FBE01960895EE0FFF1F0590A4
:10147000F491E02D099481E090E0F8940C94400AF6
:04148000F894FFCF0E
:1014840078027802C0F9A4B0999282F8809086001C
:101494000000000F01E200A402B600DA00C600B7A3
:1014A400000000000010037902A7025D03D802B611
:0414B40002CA020066
:00000001FF
